:100000000C9463000C948B000C948B000C941D03D7
:100010000C941D030C941D030C948B000C948B000A
:100020000C948B000C948B000C948B000C948B0024
:100030000C948B000C948B000C948B000C948B0014
:100040000C94D3020C948B000C948B000C948B00BA
:100050000C948B000C948B000C948B000C948B00F4
:100060000C948B000C948B000000000023002600F1
:10007000290000000000240027002A0000000000E2
:10008000250028002B0004040404040404040202D4
:100090000202020203030303030301020408102007
:1000A0004080010204081020010204081020000012
:1000B0000008000201000003040700000000000027
:1000C00000006605D30511241FBECFEFD8E0DEBFC8
:1000D000CDBF21E0A0E5B1E001C01D92A03CB20778
:1000E000E1F711E0A0E0B1E0EEE7F0E102C0059039
:1000F0000D92A035B107D9F710E0C2E6D0E004C0F8
:100100002197FE010E943206C136D107C9F70E942D
:1001100095030C9432080C94000090E0FC01E25529
:10012000FF4F2491FC01E656FF4F3491FC01EA5742
:10013000FF4FE491EE23C9F0222339F0233001F17F
:10014000A8F4213019F1223029F1F0E0EE0FFF1F61
:10015000E458FF4FA591B4918FB7F894EC916111D9
:1001600026C030953E233C938FBF08952730A9F0D9
:100170002830C9F0243049F7809180008F7D03C07A
:10018000809180008F7780938000DFCF84B58F7758
:1001900084BDDBCF84B58F7DFBCF8091B0008F779E
:1001A0008093B000D2CF8091B0008F7DF9CF3E2BED
:1001B000DACFCF93DF9390E0FC01E656FF4F249116
:1001C0008A579F4FFC0184918823D1F090E0880FDB
:1001D000991FFC01EE58FF4FA591B491FC01E45822
:1001E000FF4FC591D49161110EC09FB7F8948C91C7
:1001F000E22FE0958E238C932881E223E8839FBF32
:10020000DF91CF9108958FB7F894EC91E22BEC93A6
:100210008FBFF6CFAF92BF92CF92DF92EF92FF9255
:100220000F931F93CF93DF936C017B018B01040F1E
:10023000151FEB015E01AE18BF08C017D10759F0BA
:100240006991D601ED91FC910190F081E02DC601FC
:100250000995892B79F7C501DF91CF911F910F91F6
:10026000FF90EF90DF90CF90BF90AF9008952091D6
:100270009201309193012817390771F49091900100
:1002800080919101981741F0E0919001F0E0E05BDE
:10029000FE4F808190E008958FEF9FEF08950895BD
:1002A000EF92FF920F931F93CF93DF93DC015C9645
:1002B000ED90FC905D97E114F10479F481E090E019
:1002C00013969C938E93129790E080E0DF91CF91EC
:1002D0001F910F91FF90EF9008955196ED91FC9131
:1002E000529750968C915097982F90950FB75E9695
:1002F0002C915E97122F127021FD6095F894208149
:10030000112319F1282B2083E7012197F1F728E029
:10031000462F50E0308160FF1AC0382B3083E70150
:100320002197F1F7BA0175956795215089F7112347
:1003300081F08081892380830FBF5C968D919C9191
:100340000197F1F781E090E0C1CF2923DCCF392379
:10035000E5CF9081892BEFCF2091920130919301CD
:100360002817390761F4809191012091900190E064
:10037000805C9F4F821B91098F739927089590E0AD
:1003800080E0089520919201309193012817390758
:10039000B9F49091900180919101981789F0E091C2
:1003A0009001F0E0E05BFE4F80812091900130E011
:1003B0002F5F3F4F2F7333272093900190E00895D4
:1003C0008FEF9FEF08952FB7F89480919901909146
:1003D0009A01A0919B01B0919C012FBF8093A50130
:1003E0009093A601A093A701B093A8018DE991E095
:1003F0000E94C20197FF26C02FB7F89480919901FF
:1004000090919A01A0919B01B0919C012FBF4091C6
:10041000A5015091A6016091A7017091A801841BCC
:10042000950BA60BB70B4091A1015091A2016091D1
:10043000A3017091A40184179507A607B707B0F22E
:100440008FEF9FEF089590E080E00895CF93DF93C2
:10045000FC0101900020E9F73197AF01481B590BCF
:10046000BC018DE991E00E940A01EC0142E050E0FC
:1004700068E171E08DE991E00E940A018C0F9D1FF7
:10048000DF91CF910895EF92FF920F931F93CF9337
:10049000DF93FC0100811181FB01C081D181F80152
:1004A00081918F018823B9F0082E000C990B0E94CE
:1004B0001A087C018991082E000C990B0E941A08D9
:1004C000E816F90661F380E0DF91CF911F910F915B
:1004D000FF90EF90089581E0F7CFFC01808191813A
:1004E000009711F00C94D40608950F931F93CF93A7
:1004F000DF93EC0188819981009759F02A813B8133
:100500002617370730F081E0DF91CF911F910F91CF
:1005100008958B016F5F7F4F0E945D07009759F030
:10052000998388831B830A832C813D81232B59F770
:10053000FC011082E8CF80E0E7CFEF92FF920F93AB
:100540001F93CF93DF93EC017B01FB01019000200F
:10055000E9F731978F01061B170BB8010E9475024E
:1005600028813981811113C02115310519F0C90184
:100570000E94D406198218821D821C821B821A8254
:10058000DF91CF911F910F91FF90EF9008951D8300
:100590000C83B701C901DF91CF911F910F91FF909B
:1005A000EF900C942B081F920F920FB60F9211240C
:1005B0002F933F938F939F93AF93BF938091990114
:1005C00090919A01A0919B01B0919C01309198016A
:1005D00023E0230F2D3758F50196A11DB11D20935F
:1005E00098018093990190939A01A0939B01B093F5
:1005F0009C018091940190919501A0919601B091F8
:1006000097010196A11DB11D8093940190939501CE
:10061000A0939601B0939701BF91AF919F918F9155
:100620003F912F910F900FBE0F901F90189526E8C5
:10063000230F0296A11DB11DD2CF1F920F920FB6AC
:100640000F9211242F933F934F935F936F937F9358
:100650008F939F93AF93BF93EF93FF93E09192019A
:10066000F0919301309749F0A685B7858585968DE1
:1006700091FF14C09C918923A1F4FF91EF91BF9148
:10068000AF919F918F917F916F915F914F913F912A
:100690002F910F900FBE0F901F9018959C9189235A
:1006A00061F7A389B4899C918589809589238C936E
:1006B000868997890197F1F7608D718DA685B78539
:1006C000558538E020E0CB010197F1F7822F90E0CB
:1006D00095958795282F4C91452309F02068315036
:1006E00091F7868D81FD20958091910190E0019692
:1006F0008F73992730919001381799F0A09191014B
:10070000B0E0A05BBE4F2C9380939101828D938DBE
:100710000197F1F7A389B4898C919589892B8C93E2
:10072000ACCF868D8160868FF1CFCF93DF93CDB72D
:10073000DEB72C970FB6F894DEBF0FBECDBF78940E
:1007400084B5826084BD84B5816084BD85B58260D6
:1007500085BD85B5816085BD80916E008160809387
:100760006E001092810080918100826080938100F0
:100770008091810081608093810080918000816000
:10078000809380008091B10084608093B10080915B
:10079000B00081608093B00080917A008460809383
:1007A0007A0080917A00826080937A0080917A004A
:1007B000816080937A0080917A00806880937A00CB
:1007C0001092C10061E080E00E94D9001092B8014F
:1007D0001092B7011092B6011092B5011092B401B7
:1007E0001092B3018DE991E09093BA018093B90121
:1007F0009091A901963108F047C02DEB30E030937D
:10080000B4012093B3012BE931E03093B60120937A
:10081000B5012CE231E03093B8012093B70120916B
:10082000680084E0983048F031E09E3008F430E011
:1008300081E001C0880F3A95EAF7822B8093680027
:100840002DE630E0983050F02BE630E09E3030F06E
:100850002CE630E0963110F030E020E03093B1012A
:100860002093B001292F30E0983008F079C081E062
:1008700001C0880F9A95EAF78093B2018091B9017F
:100880009091BA010197F1F78091B7019091B80169
:10089000892B49F1E0919201F091930181E0ED39CA
:1008A000F80709F1309739F0A389B4899C918589BB
:1008B000809589238C938091BB018E7F8093BB01AF
:1008C00010929101109290018DE991E09093930123
:1008D00080939201E091B001F091B10180819091FB
:1008E000B201892B80838BE191E00E94260280E097
:1008F000A82E80E0B82E8DE991E00E94AC01892BF2
:1009000009F478C018861F821A8619861C861B86F1
:100910006AE171E0CE0107960E949D020E94E30108
:1009200097FD2BC08A30910541F189831A820B858E
:100930001C850F5F1F4FB801CE0107960E947502FC
:10094000882361F32F8138858B859C85BE016F5F7D
:100950007F4F820F931F0E942B081C870B87DECFCF
:100960009E3040F42850310981E001C0880F2A955B
:10097000EAF782CF2E503109F7CFCF80D884C11447
:10098000D10431F00B851C85760101151105D1F5D7
:100990001A8219821C821B821E821D826CE371E006
:1009A000CE0101960E949D028B859C852D813E8102
:1009B00010E08217930759F411E0892B41F0BE0132
:1009C0006F5F7F4FCE0107960E944302182FCE0122
:1009D00001960E946D02112309F44AC061E080E093
:1009E0000E948D0088E391E00E942602CE010796C6
:1009F0000E946D02A114B10409F47DCF0E94000091
:100A00007ACF74014701EFEF8E1A9E0AF7018081B9
:100A1000082E000C990B0E94EF05892B91F70150CD
:100A200011090C0D1D1DF8018081082E000C990B79
:100A30000E94EF05892B31F00E151F0518F00150AB
:100A40001109F1CFA8014F5F5F4F4E195F095C8715
:100A50004B87CE14DF0420F4B701C6010E942208A0
:100A6000EF81F8858B859C85E80FF91F108290CF68
:100A70001A8219821C821B821E821D8263E471E02D
:100A8000CE0101960E949D028B859C852D813E8121
:100A90008217930759F411E0892B41F0BE016F5F73
:100AA0007F4FCE0107960E944302182FCE01019678
:100AB0000E946D0287E491E0112309F495CF60E074
:100AC00080E00E948D008FE391E08ECF1092A00114
:100AD00010929F0188EE93E0A0E0B0E08093A10126
:100AE0009093A201A093A301B093A4018AE091E0A6
:100AF00090939E0180939D011092B4011092B301D6
:100B00001092B6011092B5011092B8011092B7017F
:100B10001092BA011092B9016091BB016E7F6D7F96
:100B20006093BB016695617081E0682782E00E9456
:100B30008D0061E082E00E94D900ECE9F0E0E491F0
:100B4000E093AD01E8E8F0E0E491F0E0EE0FFF1F84
:100B5000E458FF4F859194919093AF018093AE013B
:100B600060E083E00E94D9008091BB0181FD04C058
:100B700061E083E00E948D0083E08093A901EDE9AC
:100B8000F0E0E491E093AA01E9E8F0E0E491F0E01C
:100B9000EE0FFF1FE859FF4F859194919093AC01A0
:100BA0008093AB0108958AE091E090939E01809339
:100BB0009D0180919201909193018D59914071F422
:100BC000E091B001F091B10190818091B2018095E6
:100BD00089238083109293011092920108959111BC
:100BE0000C94F805803219F089508550C8F70895A3
:100BF0009927882708952F923F924F925F926F9284
:100C00007F928F929F92AF92BF92CF92DF92EF929C
:100C1000FF920F931F93CF93DF93CDB7DEB7CA1B1D
:100C2000DB0B0FB6F894DEBF0FBECDBF09942A8848
:100C3000398848885F846E847D848C849B84AA84F0
:100C4000B984C884DF80EE80FD800C811B81AA817D
:100C5000B981CE0FD11D0FB6F894DEBF0FBECDBF48
:100C6000ED010895EE0FFF1F0590F491E02D09941A
:100C70000F931F93CF93DF938230910510F482E09E
:100C800090E0E091BE01F091BF0130E020E0B0E0E3
:100C9000A0E0309799F42115310509F44AC0281BCA
:100CA000390B24303105D8F58A819B816115710596
:100CB00089F1FB0193838283FE0111C04081518140
:100CC0000281138148175907E0F04817590799F432
:100CD000109761F012960C93129713961C9332960C
:100CE000CF01DF91CF911F910F9108950093BE0125
:100CF0001093BF01F4CF2115310551F0421753076E
:100D000038F0A901DB019A01BD01DF01F801C1CF73
:100D1000EF01F9CF9093BF018093BE01CDCFFE01CB
:100D2000E20FF31F81939193225031093983288375
:100D3000D7CF2091BC013091BD01232B41F42091EC
:100D40000201309103013093BD012093BC01209139
:100D50000001309101012115310541F42DB73EB755
:100D60004091040150910501241B350BE091BC0119
:100D7000F091BD01E217F307A0F42E1B3F0B2817DB
:100D8000390778F0AC014E5F5F4F2417350748F004
:100D90004E0F5F1F5093BD014093BC01819391930F
:100DA0009FCFF0E0E0E09CCFCF93DF930097E9F096
:100DB000FC01329713821282A091BE01B091BF0153
:100DC000ED0130E020E01097A1F420813181820F05
:100DD000931F2091BC013091BD012817390709F0FC
:100DE00061C0F093BD01E093BC01DF91CF91089504
:100DF000EA01CE17DF07E8F54A815B819E014115C4
:100E00005105B1F7E901FB83EA8349915991C40F78
:100E1000D51FEC17FD0761F4808191810296840F44
:100E2000951FE90199838883828193819B838A83BB
:100E3000F0E0E0E012968D919C9113970097B9F540
:100E40002D913C911197CD010296820F931F209115
:100E5000BC013091BD012817390739F6309751F59B
:100E60001092BF011092BE01B093BD01A093BC01CE
:100E7000BCCFD383C28340815181840F951FC81793
:100E8000D90761F44E5F5F4F88819981480F591FE0
:100E9000518340838A819B8193838283211531050D
:100EA00009F0B0CFF093BF01E093BE019ECFFD01EA
:100EB000DC01C0CF13821282D7CFB0E0A0E0E3E61E
:100EC000F7E00C94FD058C01009751F4CB010E94D2
:100ED00038068C01C801CDB7DEB7E0E10C941906E5
:100EE000FC01E60FF71F9C0122503109E217F307BE
:100EF00008F49DC0D901CD91DC911197C617D70791
:100F000098F0C530D10530F3CE01049786179707C6
:100F100008F3C61BD70B2297C193D1936D937C9393
:100F2000CF010E94D406D6CF5B01AC1ABD0A4C019A
:100F30008C0E9D1EA091BE01B091BF01512C412C81
:100F4000F12CE12C109731F58091BC019091BD01FD
:100F50008815990509F05CC04616570608F058C078
:100F60008091000190910101009741F48DB79EB7E7
:100F70004091040150910501841B950BE817F90776
:100F800008F055C0F093BD01E093BC01F9017183F5
:100F90006083A0CF8D919C91119712966C901297BF
:100FA00013967C901397A815B90559F56C0142E08A
:100FB000C40ED11CCA14DB0420F1AC014A195B0930
:100FC000DA011296159780F0628273825183408312
:100FD000D9016D937C93E114F10471F0D70113965C
:100FE000FC93EE93129776CF22968C0F9D1FF901FA
:100FF00091838083F301EFCFF093BF01E093BE01B3
:1010000069CF4816590608F42C017D01D3019ACF07
:10101000CB010E9438067C01009749F0AE01B8016F
:101020000E942208C8010E94D406870153CF10E015
:1010300000E050CF9111089581548A5108F4805EE8
:10104000855A0895FB01DC0102C001900D924150C8
:101050005040D8F70895FB01DC0101900D9200206B
:10106000E1F7089510E0C2E6D0E004C0FE010E945E
:0E10700032062196C336D107C9F7F894FFCF98
:10107E000000C00180000000000050010A012302A0
:10108E004F01AC01C20137010D0A00415474696E63
:10109E0079383520526561647920284C45442043C7
:1010AE006F6E74726F6C29004C4544204F4E004C8D
:1010BE004544204F464600496E76616C69640000D7
:00000001FF
