:100000000C9462000C948A000C948A000C948A0070
:100010000C948A000C948A000C948A000C948A0038
:100020000C948A000C948A000C948A000C948A0028
:100030000C948A000C948A000C948A000C948A0018
:100040000C94E3040C948A000C9453050C942D0535
:100050000C948A000C948A000C948A000C948A00F8
:100060000C948A000C948A000000000024002700F1
:100070002A0000000000250028002B0000000008D6
:10008000000201000003040700000000000000005F
:1000900000000000230026002900040404040404D6
:1000A0000404020202020202030303030303010227
:1000B00004081020408001020408102001020408F6
:1000C0001020850511241FBECFEFD8E0DEBFCDBFC5
:1000D00011E0A0E0B1E0EAEBF3E102C005900D927F
:1000E000A235B107D9F722E0A2E5B1E001C01D9227
:1000F000AB30B207E1F710E0C2E6D0E004C02197D0
:10010000FE010E94D509C136D107C9F70E94D20568
:100110000C94DB090C940000CF92DF92EF92FF92D7
:10012000CF93DF93B091FF01A0E08111AB2F8091BD
:10013000000290E0880F991FAC0140575F4FC090BC
:100140000502D0900602E0900702F090080230E02D
:1001500020E0FA01C591D491E881B90190E080E0F6
:10016000EB23EA130AC02F5F3F4F6C157D058E0508
:100170009F0578F36FEF7FEFCB01DF91CF91FF9079
:10018000EF90DF90CF900895CF93DF9390E0FC0144
:10019000E255FF4F249186569F4FFC01849188239E
:1001A000D1F090E0880F991FFC01E859FF4FA5910D
:1001B000B491FC01EE58FF4FC591D491623071F4B7
:1001C0009FB7F8943C91822F809583238C93E8818C
:1001D0002E2B28839FBFDF91CF9108958FB7F8947E
:1001E000EC912E2B2C938FBFF6CF3FB7F8948091D4
:1001F000530190915401A0915501B091560126B53B
:10020000A89B05C02F3F19F00196A11DB11D3FBF4E
:10021000BA2FA92F982F8827BC01CD01620F711D1D
:10022000811D911D42E0660F771F881F991F4A9517
:10023000D1F708958F929F92AF92BF92CF92DF92A3
:10024000EF92FF924B015C010E94F5006B017C0173
:100250000E94F5006C197D098E099F09683E734064
:1002600081059105A8F321E0821A9108A108B1083F
:1002700088EEC80E83E0D81EE11CF11C81149104A5
:10028000A104B10429F7FF90EF90DF90CF90BF90C9
:10029000AF909F908F9008958F929F92AF92BF9250
:1002A000EF92FF920F931F93CF93DF93CDB7DEB7FB
:1002B000C054D1400FB6F894DEBF0FBECDBF2FB7EC
:1002C000F8948091570190915801A0915901B091F3
:1002D0005A012FBF40910102509102026091030226
:1002E000709104028C019D01041B150B260B370B2A
:1002F000B901A801403D574061057105A0F4809106
:100300000902C05CDE4F0FB6F894DEBF0FBECDBF52
:10031000DF91CF911F910F91FF90EF90BF90AF9021
:100320009F908F9008958093010290930202A09372
:100330000302B09304021092FC011092FB01109290
:10034000FA011092F9011092F80162E08091FD012A
:100350000E94C40061E070E080E090E00E941A0119
:1003600061E08091FD010E94C4008091FD0190E058
:10037000FC01E458FF4F2491FC01E255FF4F3491FA
:10038000FC01E656FF4FE491EE23D9F0222359F009
:10039000233009F44BC008F03EC0213009F44CC0B2
:1003A000223009F44DC0F0E0EE0FFF1FEE58FF4F72
:1003B000A591B4918FB7F894EC9130953E233C937E
:1003C0008FBF8091FE018551823008F046C08BE2DC
:1003D00091E10197F1F762E08091FD010E94C40074
:1003E00080910A0290E08230910538F0880F991FC1
:1003F000880F991F05970197F1F7F89480E00E9404
:100400008C006F3F7F4F8F4F9F4F71F51092090205
:10041000789480E076CF2730B1F02830D1F02430C6
:1004200009F0C1CF809180008F7D03C08091800052
:100430008F7780938000B7CF84B58F7784BDB3CF9B
:1004400084B58F7DFBCF8091B0008F778093B00013
:10045000AACF8091B0008F7DF9CF64E170E080E099
:1004600090E00E941A01B7CF81E00E948C006F3F9C
:100470007F4F8F4F9F4F51F2CE0101967C015E015D
:100480009FEBA91A9EEFB90A870180E00E948C00B9
:10049000F801608371838283938381E00E948C00E2
:1004A000F8016483758386839783085F1F4FA016C6
:1004B000B10659F7789430E020E0F7018080918010
:1004C000A280B3804481558166817781FFEF8F16CA
:1004D0009F06AF06BF0631F04F3F0FEF5007600792
:1004E000700719F41092090294CFF90183E0F59591
:1004F000E7958A95E1F7E850FE4F8081880F8416D2
:100500009506A606B70618F180832F5F3F4F18E0C7
:10051000E10EF11C2832310581F64091FC01209159
:10052000F8018091F901280F3327331F8091FA01D8
:10053000280F311D8091FB01820F932F911D992768
:100540004817190679F681E080930902DACE8160B6
:10055000DBCFAF92BF92CF92DF92EF92FF920F93D9
:100560001F93CF93DF936C017B018B01040F151F49
:10057000EB015E01AE18BF08C017D10759F06991B1
:10058000D601ED91FC910190F081E02DC601099515
:10059000892B79F7C501DF91CF911F910F91FF90C2
:1005A000EF90DF90CF90BF90AF900895FC01538DF6
:1005B000448D252F30E0842F90E0821B930B54173D
:1005C00010F0CF96089501970895FC01918D828DCA
:1005D000981761F0A28DAE0FBF2FB11D5D968C9163
:1005E000928D9F5F9F73928F90E008958FEF9FEFA2
:1005F0000895FC01918D828D981731F0828DE80F5E
:10060000F11D858D90E008958FEF9FEF0895FC0117
:10061000918D228D892F90E0805C9F4F821B9109E4
:100620008F73992708958BE591E00E94070321E0DD
:10063000892B09F420E0822F089580E090E0892B37
:1006400029F00E94130381110C9400000895FC010D
:10065000A48DA80FB92FB11DA35ABF4F2C91848D23
:1006600090E001968F739927848FA689B7892C9380
:10067000A089B1898C91837080648C93938D848DD3
:10068000981306C00288F389E02D80818F7D8083D6
:100690000895EF92FF920F931F93CF93DF93EC0196
:1006A00081E0888F9B8D8C8D98131AC0E889F98919
:1006B000808185FF15C09FB7F894EE89FF8960831C
:1006C000E889F98980818370806480839FBF81E09D
:1006D00090E0DF91CF911F910F91FF90EF900895DF
:1006E000F62E0B8D10E00F5F1F4F0F731127E02EBA
:1006F0008C8D8E110CC00FB607FCFACFE889F989F2
:10070000808185FFF5CFCE010E942703F1CFEB8DCD
:10071000EC0FFD2FF11DE35AFF4FF0829FB7F894C5
:100720000B8FEA89FB8980818062CFCFCF93DF93E3
:10073000EC01888D8823B9F0AA89BB89E889F989F9
:100740008C9185FD03C0808186FD0DC00FB607FC2E
:10075000F7CF8C9185FFF2CF808185FFEDCFCE0161
:100760000E942703E9CFDF91CF910895FC0101900A
:100770000020E9F73197AF01481B590BBC018BE50D
:1007800091E00C94A9028F929F92AF92BF920F9327
:100790001F93CF93DF93CDB7DEB7A1970FB6F89431
:1007A000DEBF0FBECDBF19A2423008F44AE08E0171
:1007B0000F5D1F4F842E912CB12CA12CA50194010B
:1007C0000E94B309E62FB901CA01EA30F4F4E05DF2
:1007D000D801EE938D01232B242B252B79F790E064
:1007E00080E0109719F0CD010E94B603A1960FB6D4
:1007F000F894DEBF0FBECDBFDF91CF911F910F9157
:10080000BF90AF909F908F900895E95CE1CF4F9299
:100810005F926F927F928F929F92AF92BF92CF9290
:10082000DF92EF92FF920F931F93CF936B017C01A6
:10083000742EAC019B010E94AE09882399F082E1DD
:1008400091E0CF911F910F91FF90EF90DF90CF90AB
:10085000BF90AF909F908F907F906F905F904F90E0
:100860000C94B60346015701E894B7F82FEF3FEF19
:100870004FE75FE7C501B4010E94AE0981110DC0C9
:100880002FEF3FEF4FE75FE7C501B4010E94E40798
:1008900018161CF486E191E0D4CF2FEF3FEF4FE71D
:1008A0005FE4C701B6010E943C0918161CF48AE1F6
:1008B00091E0C7CF2FEF3FEF4FE75FECC701B601E5
:1008C0000E94E40787FDF3CF20E030E0A901C701D3
:1008D000B6010E94E40710E000E087FF0AC06DE265
:1008E0008BE591E00E9449038C01F7FAF094F7F848
:1008F000F094C0E060E070E080E09FE37C1641F09F
:1009000020E030E040E251E40E94E907CF5FF6CFFB
:10091000A70196010E9478072B013C010E945B0809
:100920004B015C014AE00E94C3037C01E00EF11E12
:10093000CC23C1F1C501B4010E948A089B01AC011E
:10094000C301B2010E9477074B015C016EE28BE5A7
:1009500091E00E944903E80EF91EC15018F120E011
:1009600030E040E251E4C501B4010E9441092B018D
:100970003C010E945B084B01B12CA12C4AE0C5014F
:10098000B4010E94C303E80EF91EC501B4010E9420
:100990008A089B01AC01C301B2010E9477074B0199
:1009A0005C01DBCFC701CF911F910F91FF90EF90BA
:1009B000DF90CF90BF90AF909F908F907F906F907F
:1009C0005F904F9008951F920F920FB60F921124CF
:1009D0002F933F938F939F93AF93BF938091570132
:1009E00090915801A0915901B0915A013091520152
:1009F00023E0230F2D3758F50196A11DB11D20933B
:100A000052018093570190935801A0935901B093DC
:100A10005A018091530190915401A0915501B091D8
:100A200056010196A11DB11D80935301909354016D
:100A3000A0935501B0935601BF91AF919F918F91B3
:100A40003F912F910F900FBE0F901F90189526E8A1
:100A5000230F0296A11DB11DD2CF1F920F920FB688
:100A60000F9211242F933F934F935F936F937F9334
:100A70008F939F93AF93BF93EF93FF938BE591E099
:100A80000E942703FF91EF91BF91AF919F918F91AA
:100A90007F916F915F914F913F912F910F900FBE7A
:100AA0000F901F9018951F920F920FB60F9211245E
:100AB0002F938F939F93EF93FF93E0916B01F091AE
:100AC0006C018081E0917101F091720182FD1BC087
:100AD0009081809174018F5F8F73209175018217CF
:100AE00041F0E0917401F0E0E55AFE4F958F80935C
:100AF0007401FF91EF919F918F912F910F900FBEF5
:100B00000F901F9018958081F4CFEBE5F1E01382F0
:100B1000128288EE93E0A0E0B0E084839583A68300
:100B2000B78384E091E09183808385EC90E09587A2
:100B3000848784EC90E09787868780EC90E0918BA7
:100B4000808B81EC90E0938B828B82EC90E0958B94
:100B5000848B86EC90E0978B868B118E128E138E91
:100B6000148EA8EFB1E087E015968C9315978BE073
:100B700016968C931697E5EBF0E0E4911796EC93BC
:100B80001797E1EAF0E0E4911896EC93189740E8A3
:100B90005EE360E070E01D964D935D936D937C93F2
:100BA00050970895789484B5826084BD84B581603F
:100BB00084BD85B5826085BD85B5816085BD809128
:100BC0006E00816080936E001092810080918100A0
:100BD0008260809381008091810081608093810098
:100BE000809180008160809380008091B10084605A
:100BF0008093B1008091B00081608093B0008091BB
:100C00007A00846080937A0080917A008260809379
:100C10007A0080917A00816080937A0080917A00D6
:100C2000806880937A001092C100E0916B01F0918E
:100C30006C0182E08083E0916701F091680110828D
:100C4000E0916901F0916A0180E180831092730163
:100C5000E0916F01F091700186E08083E0916D0179
:100C6000F0916E01808180618083E0916D01F0914F
:100C70006E01808188608083E0916D01F0916E014A
:100C8000808180688083E0916D01F0916E018081A8
:100C90008F7D808362E08091FD010E94C4002FB7A8
:100CA000F8948091570190915801A0915901B09109
:100CB0005A012FBF805D9740A109B10980930102BD
:100CC00090930202A0930302B093040287E38093FF
:100CD0000A028EE191E00E94B60380E391E00E9457
:100CE000B603C0E0D0E00E944C01882349F0809117
:100CF000FE018B3028F08D3050F085518230C8F1E4
:100D0000812C912C20ECA22E2FE7B22E1EC06091D8
:100D1000F90170E090E080E00E948C082DEC3CEC42
:100D20004CEC5DE30E9441096B017C016091F8018C
:100D300070E090E080E00E948C089B01AC01C7014C
:100D4000B6010E9478074B015C010E944C01882388
:100D500009F474C08091FE018C3009F488C0D8F485
:100D60008B3091F1C12CD12C80ECE82E8FE7F82E3E
:100D700055C06091F8017091F901762767277627B1
:100D800090E080E00E948A082DEC3CEC4CEC5DE3A6
:100D90000E944109D8CF8551823020F71091FA0185
:100DA000612F70E0762F662766277F778091FB01A1
:100DB000682B90E080E00E948A082DEC3CEC4CEC23
:100DC0005DE30E9441096FC06091FA0170E090E01C
:100DD00080E00E948A086B017C011091FB0117FFE3
:100DE0000AC0AC019B0160E070E080E89FEB0E94CC
:100DF00077076B017C011F70612F70E090E080E04D
:100E00000E948C082DEC3CEC4CEC5DE30E94410907
:100E1000A70196010E9478076B017C01A50194014E
:100E2000C501B4010E94AE09811108C0A701960155
:100E3000C701B6010E94AE098823F1F183E391E076
:100E40000E94B60380E391E00E94B60360ED77E074
:100E500080E090E00E941A01209709F444CF0E949C
:100E60001303882309F43FCF0E9400003CCF109168
:100E7000FA01612F70E090E080E00E948A086B0127
:100E80007C016091FB016F7070E090E080E00E9457
:100E90008C082DEC3CEC4CEC5DE30E944109A70171
:100EA00096010E9478076B017C0117FFB7CFF7FA14
:100EB000F094F7F8F094B2CF86E491E00E94B60384
:100EC00041E0C701B6010E9407048BE491E00E9453
:100ED000B60341E0C501B4010E94070480E391E03C
:100EE0000E94B60360E971E080E090E0B3CF505813
:100EF000BB27AA270E948F070C9402090E94F408BE
:100F000038F00E94FB0820F039F49F3F19F426F4D2
:100F10000C94F1080EF4E095E7FB0C94EB08E92F34
:100F20000E94130958F3BA176207730784079507DD
:100F300020F079F4A6F50C9435090EF4E0950B2E0B
:100F4000BA2FA02D0B01B90190010C01CA01A0011B
:100F50001124FF27591B99F0593F50F4503E68F176
:100F60001A16F040A22F232F342F4427585FF3CFB7
:100F7000469537952795A795F0405395C9F77EF488
:100F80001F16BA0B620B730B840BBAF09150A1F0D1
:100F9000FF0FBB1F661F771F881FC2F70EC0BA0F57
:100FA000621F731F841F48F4879577956795B795DF
:100FB000F7959E3F08F0B0CF9395880F08F09927DA
:100FC000EE0F9795879508950E94C70808F481E071
:100FD00008950E94FD070C9402090E94FB0858F036
:100FE0000E94F40840F029F45F3F29F00C94EB08CC
:100FF00051110C9436090C94F1080E94130968F3FE
:101000009923B1F3552391F3951B550BBB27AA27C1
:1010100062177307840738F09F5F5F4F220F331FFB
:10102000441FAA1FA9F335D00E2E3AF0E0E832D0C3
:1010300091505040E695001CCAF72BD0FE2F29D0C6
:10104000660F771F881FBB1F261737074807AB0798
:10105000B0E809F0BB0B802DBF01FF2793585F4F0D
:101060003AF09E3F510578F00C94EB080C94360949
:101070005F3FE4F3983ED4F3869577956795B795EF
:10108000F7959F5FC9F7880F911D9695879597F9FA
:101090000895E1E0660F771F881FBB1F6217730773
:1010A0008407BA0720F0621B730B840BBA0BEE1F88
:1010B00088F7E09508950E941B0988F09F5798F0E3
:1010C000B92F9927B751B0F0E1F0660F771F881F4D
:1010D000991F1AF0BA95C9F714C0B13091F00E9467
:1010E0003509B1E008950C943509672F782F8827CA
:1010F000B85F39F0B93FCCF3869577956795B3958E
:10110000D9F73EF490958095709561957F4F8F4FFC
:101110009F4F0895E89409C097FB3EF49095809501
:10112000709561957F4F8F4F9F4F9923A9F0F92FAD
:1011300096E9BB279395F695879577956795B7952B
:10114000F111F8CFFAF4BB0F11F460FF1BC06F5F11
:101150007F4F8F4F9F4F16C0882311F096E911C023
:10116000772321F09EE8872F762F05C0662371F044
:1011700096E8862F70E060E02AF09A95660F771F58
:10118000881FDAF7880F9695879597F90895990F34
:101190000008550FAA0BE0E8FEEF16161706E80741
:1011A000F907C0F012161306E407F50798F0621B62
:1011B000730B840B950B39F40A2661F0232B242B37
:1011C000252B21F408950A2609F4A140A6958FEF56
:1011D000811D811D089597F99F6780E870E060E0A8
:1011E00008959FEF80EC089500240A9416161706C0
:1011F00018060906089500240A9412161306140608
:1012000005060895092E0394000C11F4882352F06A
:10121000BB0F40F4BF2B11F460FF04C06F5F7F4F22
:101220008F4F9F4F089557FD9058440F551F59F009
:101230005F3F71F04795880F97FB991F61F09F3FC3
:1012400079F087950895121613061406551FF2CFEC
:101250004695F1DF08C0161617061806991FF1CF3C
:1012600086957105610508940895E894BB27662763
:101270007727CB0197F908950E94C70808F48FEFEC
:1012800008950E9454090C9402090E94F40838F051
:101290000E94FB0820F0952311F00C94EB080C94AD
:1012A000F10811240C9436090E94130970F3959FDC
:1012B000C1F3950F50E0551F629FF001729FBB274D
:1012C000F00DB11D639FAA27F00DB11DAA1F649FE9
:1012D0006627B00DA11D661F829F2227B00DA11D9C
:1012E000621F739FB00DA11D621F839FA00D611D22
:1012F000221F749F3327A00D611D231F849F600D43
:10130000211D822F762F6A2F11249F5750409AF06B
:10131000F1F088234AF0EE0FFF1FBB1F661F771FF7
:10132000881F91505040A9F79E3F510580F00C94C2
:10133000EB080C9436095F3FE4F3983ED4F38695AE
:1013400077956795B795F795E7959F5FC1F7FE2B62
:10135000880F911D9695879597F908950E94C70863
:10136000880B990B0895A1E21A2EAA1BBB1BFD0145
:101370000DC0AA1FBB1FEE1FFF1FA217B307E40774
:10138000F50720F0A21BB30BE40BF50B661F771FCC
:10139000881F991F1A9469F76095709580959095AC
:1013A0009B01AC01BD01CF010895EE0FFF1F059019
:0A13B000F491E02D0994F894FFCFAA
:1013BA00000000004903A902D60296030703E502CA
:1013CA00F9026E616E00696E66006F7666002044EF
:1013DA0048542053656E736F7220526561647900B8
:1013EA000D0A004448542072656164696E6720657D
:1013FA0072726F72210054203E20002048203E2045
:02140A000000E0
:00000001FF
