:100000000C9462000C9482040C945B040C948A009F
:100010000C948A000C948A000C948A000C948A0038
:100020000C948A000C948A000C948A000C948A0028
:100030000C948A000C948A000C948A000C948A0018
:100040000C9411040C948A000C94CF040C94A90411
:100050000C948A000C948A000C948A000C948A00F8
:100060000C948A000C948A000000000023002600F3
:10007000290000000000240027002A0000000000E2
:10008000250028002B0004040404040404040202D4
:100090000202020203030303030301020408102007
:1000A0004080010204081020010204081020000012
:1000B0000008000201000003040700000000000027
:1000C0000000FB0711241FBECFEFD8E0DEBFCDBF7D
:1000D00022E0A2E6B1E001C01D92A931B207E1F72A
:1000E00011E0A0E0B1E0EAE2F9E102C005900D9272
:1000F000A236B107D9F710E0C2E6D0E004C02197DC
:10010000FE010E94930AC136D107C9F70E9401057A
:100110000C94930C0C940000833081F028F481300F
:1001200099F08230A9F008958730A9F08830C9F09D
:100130008430B1F4809180008F7D03C08091800075
:100140008F7780938000089584B58F7784BD08955C
:1001500084B58F7DFBCF8091B0008F778093B00006
:1001600008958091B0008F7DF9CF1F93CF93DF93D7
:10017000282F30E0F901E255FF4F8491F901E6564E
:10018000FF4FD491F901EA57FF4FC491CC23A9F056
:10019000162F81110E948C00EC2FF0E0EE0FFF1F54
:1001A000E458FF4FA591B4918FB7F894EC911111D9
:1001B00008C0D095DE23DC938FBFDF91CF911F91D4
:1001C0000895DE2BF8CFCF93DF9390E0FC01E65645
:1001D000FF4F24918A579F4FFC0184918823D1F0CF
:1001E00090E0880F991FFC01EE58FF4FA591B49144
:1001F000FC01E458FF4FC591D491623071F49FB770
:10020000F8943C91822F809583238C93E8812E2B48
:1002100028839FBFDF91CF9108958FB7F894EC9119
:100220002E2B2C938FBFF6CF0895AF92BF92CF9213
:10023000DF92EF92FF920F931F93CF93DF936C01A6
:100240007B018B01040F151FEB015E01AE18BF0887
:10025000C017D10759F06991D601ED91FC91019039
:10026000F081E02DC6010995892B79F7C501DF9151
:10027000CF911F910F91FF90EF90DF90CF90BF90A3
:10028000AF900895FC01538D448D252F30E0842FCD
:1002900090E0821B930B541710F0CF9608950197AE
:1002A0000895FC01918D828D981761F0A28DAE0F9B
:1002B000BF2FB11D5D968C91928D9F5F9F73928F22
:1002C00090E008958FEF9FEF08952FB7F8948091F5
:1002D000740190917501A0917601B09177012FBFC3
:1002E0008093800190938101A0938201B093830158
:1002F00088E791E00E94510197FF26C02FB7F8943C
:100300008091740190917501A0917601B09177016F
:100310002FBF4091800150918101609182017091C5
:100320008301841B950BA60BB70B40917C01509168
:100330007D0160917E0170917F0184179507A6076A
:10034000B707B0F28FEF9FEF0895FC01918D828D7A
:10035000981731F0828DE80FF11D858D90E008959A
:100360008FEF9FEF0895FC01918D228D892F90E0F2
:10037000805C9F4F821B91098F739927089588E7AE
:1003800091E00E94B30121E0892B09F420E0822F43
:10039000089580E090E0892B29F00E94BF0181112F
:1003A0000C9400000895FC01A48DA80FB92FB11D75
:1003B000A35ABF4F2C91848D90E001968F7399279B
:1003C000848FA689B7892C93A089B1898C91837079
:1003D00080648C93938D848D981306C00288F38972
:1003E000E02D80818F7D80830895EF92FF920F939F
:1003F0001F93CF93DF93EC0181E0888F9B8D8C8DD1
:1004000098131AC0E889F989808185FF15C09FB7C4
:10041000F894EE89FF896083E889F9898081837087
:10042000806480839FBF81E090E0DF91CF911F9136
:100430000F91FF90EF900895F62E0B8D10E00F5F57
:100440001F4F0F731127E02E8C8D8E110CC00FB62D
:1004500007FCFACFE889F989808185FFF5CFCE01C5
:100460000E94D301F1CFEB8DEC0FFD2FF11DE35A6C
:10047000FF4FF0829FB7F8940B8FEA89FB89808148
:100480008062CFCFCF93DF93EC01888D8823B9F0C2
:10049000AA89BB89E889F9898C9185FD03C080818F
:1004A00086FD0DC00FB607FCF7CF8C9185FFF2CF0C
:1004B000808185FFEDCFCE010E94D301E9CFDF918E
:1004C000CF910895CF93DF93E1EBF0E08491EDE9D4
:1004D000F0E0D491E9E8F0E0C491CC2321F181115E
:1004E0000E948C00EC2FF0E0EE0FFF1FE859FF4F49
:1004F000A591B491EC91ED23B1F0809166019091BA
:100500006701A0916801B09169010197A109B10942
:100510008093660190936701A0936801B09369018D
:10052000DF91CF9108958091660190916701A0912C
:100530006801B09169010196A11DB11DE9CFCF936A
:10054000DF93809106018636C1F461E088E00E9465
:10055000B50060E089E00E94B500C0910401D0912F
:10056000050161E085E00E94E300209761F460E00E
:1005700085E0DF91CF910C94B50060E088E00E94A7
:10058000B50061E0E7CFCF3FD10511F461E0F0CFD6
:10059000E3EBF0E0E491E33029F140F4E130B1F035
:1005A000E230D9F0C038D1058CF7E1CFE73021F146
:1005B000E83051F1E430B1F780918000806280939F
:1005C0008000D0938B00C0938A0004C084B58068FB
:1005D00084BDC7BDDF91CF91089584B5806284BD8D
:1005E000C8BDF8CF80918000806880938000D09350
:1005F0008900C0938800EECF8091B000806880931E
:10060000B000C093B300E6CF8091B00080628093C9
:10061000B000C093B400DECFFC0101900020E9F7E8
:100620003197AF01481B590BBC0188E791E00C944E
:1006300015018F929F92AF92BF920F931F93CF930A
:10064000DF93CDB7DEB7A1970FB6F894DEBF0FBE2C
:10065000CDBF19A2423008F44AE08E010F5D1F4F52
:10066000842E912CB12CA12CA50194010E94710A19
:10067000E62FB901CA01EA30F4F4E05DD801EE9347
:100680008D01232B242B252B79F790E080E0109708
:1006900019F0CD010E940C03A1960FB6F894DEBFAD
:1006A0000FBECDBFDF91CF911F910F91BF90AF9043
:1006B0009F908F900895E95CE1CF60E088E00E9410
:1006C000B50060E089E00E94B50061E085E00E942D
:1006D000E30060E085E00C94B500FC01808191812D
:1006E000009711F00C94350B0895EF92FF920F9341
:1006F0001F93CF93DF938617970769F1FC0124813D
:100700003581FB014481558124173507E1F4232B02
:1007100011F1FC0100811181FB01C081D181F8013F
:1007200081918F018823B9F0082E000C990B0E944B
:100730007B0C7C018991082E000C990B0E947B0C8C
:10074000E816F90661F380E0DF91CF911F910F91D8
:10075000FF90EF90089581E0F7CF0F931F93CF9311
:10076000DF93EC0188819981009759F02A813B81C0
:100770002617370730F081E0DF91CF911F910F915D
:1007800008958B016F5F7F4F0E94BE0B009759F059
:10079000998388831B830A832C813D81232B59F7FE
:1007A000FC011082E8CF80E0E7CFEF92FF920F9339
:1007B0001F93CF93DF93EC017B01198218821B8278
:1007C0001A821D821C82FB0101900020E9F73197FB
:1007D0008F01061B170BB8010E94AD0328813981D8
:1007E000811113C02115310519F0C9010E94350B83
:1007F000198218821D821C821B821A82DF91CF917E
:100800001F910F91FF90EF9008951D830C83B70106
:10081000C901DF91CF911F910F91FF90EF900C9440
:100820008C0C1F920F920FB60F9211242F933F93AF
:100830008F939F93AF93BF938091740190917501B3
:10084000A0917601B09177013091730123E0230FDD
:100850002D3758F50196A11DB11D2093730180938A
:10086000740190937501A0937601B0937701809104
:100870006F0190917001A0917101B0917201019688
:10088000A11DB11D80936F0190937001A093710120
:10089000B0937201BF91AF919F918F913F912F9132
:1008A0000F900FBE0F901F90189526E8230F029609
:1008B000A11DB11DD2CF1F920F920FB60F9211241E
:1008C0002F933F934F935F936F937F938F939F9358
:1008D000AF93BF93EF93FF93E0910201F091030177
:1008E0000995FF91EF91BF91AF919F918F917F916A
:1008F0006F915F914F913F912F910F900FBE0F908D
:100900001F9018951F920F920FB60F9211242F93DC
:100910003F934F935F936F937F938F939F93AF9387
:10092000BF93EF93FF93E0910001F09101010995CE
:10093000FF91EF91BF91AF919F918F917F916F91B7
:100940005F914F913F912F910F900FBE0F901F908D
:1009500018951F920F920FB60F9211242F933F9369
:100960004F935F936F937F938F939F93AF93BF93B7
:10097000EF93FF9388E791E00E94D301FF91EF91FD
:10098000BF91AF919F918F917F916F915F914F91A7
:100990003F912F910F900FBE0F901F9018951F92AF
:1009A0000F920FB60F9211242F938F939F93EF9373
:1009B000FF93E0918801F09189018081E0918E019F
:1009C000F0918F0182FD1BC09081809191018F5F1A
:1009D0008F7320919201821741F0E0919101F0E034
:1009E000E858FE4F958F80939101FF91EF919F9171
:1009F0008F912F910F900FBE0F901F9018958081AF
:100A0000F4CFCF93DF93CDB7DEB72C970FB6F89422
:100A1000DEBF0FBECDBF789484B5826084BD84B53F
:100A2000816084BD85B5826085BD85B5816085BDE9
:100A300080916E00816080936E00109281008091A1
:100A40008100826080938100809181008160809329
:100A50008100809180008160809380008091B1004E
:100A600084608093B1008091B00081608093B00079
:100A700080917A00846080937A0080917A0082600D
:100A800080937A0080917A00816080937A008091CF
:100A90007A00806880937A001092C100E09188010A
:100AA000F091890182E08083E0918401F0918501D9
:100AB0001082E0918601F091870180E1808310929D
:100AC0009001E0918C01F0918D0186E08083E091AE
:100AD0008A01F0918B01808180618083E0918A019D
:100AE000F0918B01808188608083E0918A01F09190
:100AF0008B01808180688083E0918A01F0918B0175
:100B000080818F7D808361E085E00E94E30061E069
:100B100088E00E94E30061E089E00E94E30062E077
:100B200082E00E94E30062E083E00E94E30082E64C
:100B300092E09093010180930001809169008360AD
:100B400080936900E89A0E945D038FE191E00E9422
:100B50000C038BE391E00E940C0380E0A82E80E060
:100B6000B82E92E6792E26E6622E88E791E00E9462
:100B7000B301892B09F4BFC018861F821A86198613
:100B80001C861B8670E060E0CE0107960E94AD03D4
:100B90002F81388581112EC02115310519F0C90129
:100BA0000E94350B18861F821C861B861A861986A2
:100BB0000E94650197FD26C08A30910519F189834D
:100BC0001A820B851C850F5F1F4FB801CE01079657
:100BD0000E94AD03882361F32F8138858B859C8526
:100BE000BE016F5F7F4F820F931F0E948C0C1C878A
:100BF0000B87DECF1C861B866DE371E0C9010E9466
:100C00008C0CD6CFCF80D884C114D10431F00B85A1
:100C10001C85760101151105D9F46EE371E0CE0152
:100C200001960E94D503BE016F5F7F4FCE010796EC
:100C30000E947503182FCE0101960E946D031123A7
:100C4000E9F1F1E0F0936E010E949F0250C074013F
:100C500047018FEF881A980AF7018081082E000C4F
:100C6000990B0E946408892B91F7015011090C0D12
:100C70001D1DF8018081082E000C990B0E9464084C
:100C8000892B31F00E151F0518F001501109F1CF15
:100C9000A8014F5F5F4F4E195F095C874B87CE14E9
:100CA000DF0420F4B701C6010E94830CEF81F885B0
:100CB0008B859C85E80FF91F1082AFCF61E471E04E
:100CC000CE0101960E94D503BE016F5F7F4FCE011A
:100CD00007960E947503182FCE0101960E946D039E
:100CE000112309F4ADC010926E010E945D03CE0184
:100CF00007960E946D032FB7F8948091740190912C
:100D00007501A0917601B09177012FBF40916A01E2
:100D100050916B0160916C0170916D01841B950B7A
:100D2000A60BB70B84369105A105B10508F47CC06C
:100D3000F8946091660170916701809168019091CB
:100D40006901109266011092670110926801109279
:100D5000690178940E94740820E030E040E85AE38A
:100D60000E94D30820E030E046E154E40E94D3081A
:100D700060936201709363018093640190936501B5
:100D800087E491E00E940C03C0900401D09005011B
:100D90000D2C000CEE08FF084AE0C701B601F7FE73
:100DA0000DC06DE288E791E00E94F5016627772784
:100DB000CB016C197D098E099F094AE00E94190335
:100DC0008EE491E00E940C0380E591E00E940C0308
:100DD000C0906201D0906301E0906401F0906501E1
:100DE000A7019601C701B6010E946C0A882309F485
:100DF00070C085E591E00E940C038BE391E00E94B6
:100E00000C032FB7F8948091740190917501A09113
:100E10007601B09177012FBF80936A0190936B01A7
:100E2000A0936C01B0936D01A114B10409F49DCE9F
:100E30000E94BF01882309F498CE0E94000095CE3D
:100E400063E471E0CE0101960E94D503BE016F5F9D
:100E50007F4FCE0107960E947503182FCE01019691
:100E60000E946D03112341F06092060180916E0192
:100E7000882309F43CCFE8CE65E471E0CE01019609
:100E80000E94D503BE016F5F7F4FCE0107960E947F
:100E90007503182FCE0101960E946D03112319F0DE
:100EA00070920601E3CF8F819885009771F00E94C0
:100EB00028086F3F71058105910511F008F017CFE3
:100EC0007093050160930401D1CF60E070E0CB0125
:100ED000F7CF16012701E89457F82FEF3FEF4FE7C0
:100EE0005FE7C201B1010E946C0A81110DC02FEFB2
:100EF0003FEF4FE75FE7C201B1010E946D0818168E
:100F00001CF489E591E077CF2FEF3FEF4FE75FE4E7
:100F1000C701B6010E94670A18161CF48DE591E01E
:100F20006ACF2FEF3FEF4FE75FECC701B6010E949A
:100F30006D0887FDF3CF20E030E0A901C701B601BD
:100F40000E946D0887FF09C06DE288E791E00E946A
:100F5000F501F7FAF094F7F8F0942AE037ED43EA58
:100F60005BE3C701B6010E94CC091B012C010E9462
:100F7000380A6B017C010E9472089B01AC01C2011E
:100F8000B1010E94CB091B012C014AE0C701B60147
:100F90000E9419036EE288E791E00E94F50120E0CB
:100FA00030E040E251E4C201B1010E94D3081B01CC
:100FB0002C010E94380A6B01F12CE12C4AE0C70198
:100FC000B6010E941903C701B6010E9472089B0175
:100FD000AC01C201B1010E94CB0920E030E040E247
:100FE00051E40E94D3080E94380A90E080E04AE071
:100FF0000E94190302CFE8E7F1E01382128288EE23
:1010000093E0A0E0B0E084839583A683B78381E179
:1010100091E09183808385EC90E09587848784ECD0
:1010200090E09787868780EC90E0918B808B81ECB5
:1010300090E0938B828B82EC90E0958B848B86EC96
:1010400090E0978B868B118E128E138E148E0895DE
:101050001F93FC0199278827BC01E8941191103255
:10106000E9F3193010F01E30C8F31B3251F01D3275
:1010700049F4689406C00E944F08610F711D811DDC
:10108000911D119110531A30B0F33EF49095809554
:10109000709561957F4F8F4F9F4F1F910895592FE6
:1010A000482F372F262F660F771F881F991F660F2F
:1010B000771F881F991F620F731F841F951F660F6C
:1010C000771F881F991F089591110C944009803251
:1010D00019F089508550C8F708950E94AF0808F4A8
:1010E00081E00895E89409C097FB3EF490958095BF
:1010F000709561957F4F8F4F9F4F9923A9F0F92FDE
:1011000096E9BB279395F695879577956795B7955B
:10111000F111F8CFFAF4BB0F11F460FF1BC06F5F41
:101120007F4F8F4F9F4F16C0882311F096E911C053
:10113000772321F09EE8872F762F05C0662371F074
:1011400096E8862F70E060E02AF09A95660F771F88
:10115000881FDAF7880F9695879597F90895990F64
:101160000008550FAA0BE0E8FEEF16161706E80771
:10117000F907C0F012161306E407F50798F0621B92
:10118000730B840B950B39F40A2661F0232B242B67
:10119000252B21F408950A2609F4A140A6958FEF86
:1011A000811D811D08950E94E6080C945A090E9431
:1011B0004C0938F00E94530920F0952311F00C944B
:1011C00043090C94490911240C948E090E946B095F
:1011D00070F3959FC1F3950F50E0551F629FF0018A
:1011E000729FBB27F00DB11D639FAA27F00DB11DA3
:1011F000AA1F649F6627B00DA11D661F829F22272C
:10120000B00DA11D621F739FB00DA11D621F839FB2
:10121000A00D611D221F749F3327A00D611D231F88
:10122000849F600D211D822F762F6A2F11249F57D6
:1012300050409AF0F1F088234AF0EE0FFF1FBB1FD9
:10124000661F771F881F91505040A9F79E3F510598
:1012500080F00C9443090C948E095F3FE4F3983EB0
:10126000D4F3869577956795B795F795E7959F5F42
:10127000C1F7FE2B880F911D9695879597F90895D4
:1012800099278827089597F99F6780E870E060E0C4
:1012900008959FEF80EC089500240A94161617060F
:1012A00018060906089500240A9412161306140657
:1012B00005060895092E0394000C11F4882352F0BA
:1012C000BB0F40F4BF2B11F460FF04C06F5F7F4F72
:1012D0008F4F9F4F089557FD9058440F551F59F059
:1012E0005F3F71F04795880F97FB991F61F09F3F13
:1012F00079F087950895121613061406551FF2CF3C
:101300004695F1DF08C0161617061806991FF1CF8B
:1013100086957105610508940895E894BB276627B2
:101320007727CB0197F908952F923F924F925F92C2
:101330006F927F928F929F92AF92BF92CF92DF92E5
:10134000EF92FF920F931F93CF93DF93CDB7DEB74A
:10135000CA1BDB0B0FB6F894DEBF0FBECDBF0994DE
:101360002A88398848885F846E847D848C849B8435
:10137000AA84B984C884DF80EE80FD800C811B8143
:10138000AA81B981CE0FD11D0FB6F894DEBF0FBE72
:10139000CDBFED0108955058BB27AA270E94E3094D
:1013A0000C945A090E944C0938F00E94530920F00D
:1013B00039F49F3F19F426F40C9449090EF4E09592
:1013C000E7FB0C944309E92F0E946B0958F3BA1705
:1013D000620773078407950720F079F4A6F50C944B
:1013E0008D090EF4E0950B2EBA2FA02D0B01B9013B
:1013F00090010C01CA01A0011124FF27591B99F08B
:10140000593F50F4503E68F11A16F040A22F232F96
:10141000342F4427585FF3CF469537952795A795E6
:10142000F0405395C9F77EF41F16BA0B620B730B8D
:10143000840BBAF09150A1F0FF0FBB1F661F771FFE
:10144000881FC2F70EC0BA0F621F731F841F48F4B3
:10145000879577956795B795F7959E3F08F0B0CF3C
:101460009395880F08F09927EE0F97958795089523
:101470000E94730988F09F5798F0B92F9927B751A8
:10148000B0F0E1F0660F771F881F991F1AF0BA9528
:10149000C9F714C0B13091F00E948D09B1E00895F0
:1014A0000C948D09672F782F8827B85F39F0B93FE2
:1014B000CCF3869577956795B395D9F73EF49095DB
:1014C0008095709561957F4F8F4F9F4F08950E9433
:1014D000AF0808F48FEF08950E94AF08880B990BAE
:1014E0000895A1E21A2EAA1BBB1BFD010DC0AA1F65
:1014F000BB1FEE1FFF1FA217B307E407F50720F07D
:10150000A21BB30BE40BF50B661F771F881F991FF7
:101510001A9469F760957095809590959B01AC0140
:10152000BD01CF010895EE0FFF1F0590F491E02D4E
:1015300009940F931F93CF93DF938230910510F49A
:1015400082E090E0E0911702F091180230E020E094
:10155000B0E0A0E0309799F42115310509F44AC0B4
:10156000281B390B24303105D8F58A819B81611500
:10157000710589F1FB0193838283FE0111C04081D3
:1015800051810281138148175907E0F04817590724
:1015900099F4109761F012960C93129713961C937E
:1015A0003296CF01DF91CF911F910F910895009353
:1015B000170210931802F4CF2115310551F042178C
:1015C000530738F0A901DB019A01BD01DF01F801E1
:1015D000C1CFEF01F9CF9093180280931702CDCFBE
:1015E000FE01E20FF31F8193919322503109398359
:1015F0002883D7CF2091150230911602232B41F476
:101600002091090130910A013093160220931502AE
:1016100020910701309108012115310541F42DB7C2
:101620003EB740910B0150910C01241B350BE0910A
:101630001502F0911602E217F307A0F42E1B3F0BE0
:101640002817390778F0AC014E5F5F4F2417350734
:1016500048F04E0F5F1F509316024093150281937E
:1016600091939FCFF0E0E0E09CCFCF93DF93009782
:10167000E9F0FC01329713821282A0911702B09117
:101680001802ED0130E020E01097A1F420813181B3
:10169000820F931F209115023091160228173907E7
:1016A00009F061C0F0931602E0931502DF91CF912B
:1016B0000895EA01CE17DF07E8F54A815B819E01B4
:1016C00041155105B1F7E901FB83EA83499159912D
:1016D000C40FD51FEC17FD0761F48081918102963C
:1016E000840F951FE90199838883828193819B836D
:1016F0008A83F0E0E0E012968D919C911397009719
:10170000B9F52D913C911197CD010296820F931F4F
:1017100020911502309116022817390739F63097B3
:1017200051F51092180210921702B0931602A0936E
:101730001502BCCFD383C28340815181840F951F92
:10174000C817D90761F44E5F5F4F88819981480FB0
:10175000591F518340838A819B8193838283211502
:10176000310509F0B0CFF0931802E09317029ECF35
:10177000FD01DC01C0CF13821282D7CFB0E0A0E020
:10178000E4ECFBE00C9496098C01009751F4CB013A
:101790000E94990A8C01C801CDB7DEB7E0E10C9434
:1017A000B209FC01E60FF71F9C0122503109E21734
:1017B000F30708F49DC0D901CD91DC911197C617AC
:1017C000D70798F0C530D10530F3CE0104978617BE
:1017D000970708F3C61BD70B2297C193D1936D933C
:1017E0007C93CF010E94350BD6CF5B01AC1ABD0AAA
:1017F0004C018C0E9D1EA0911702B0911802512C25
:10180000412CF12CE12C109731F58091150290912B
:1018100016028815990509F05CC04616570608F0AF
:1018200058C08091070190910801009741F48DB74D
:101830009EB740910B0150910C01841B950BE8174A
:10184000F90708F055C0F0931602E0931502F9016C
:1018500071836083A0CF8D919C91119712966C90AB
:10186000129713967C901397A815B90559F56C013A
:1018700042E0C40ED11CCA14DB0420F1AC014A19A9
:101880005B09DA011296159780F0628273825183A8
:101890004083D9016D937C93E114F10471F0D70179
:1018A0001396FC93EE93129776CF22968C0F9D1F82
:1018B000F90191838083F301EFCFF0931802E09355
:1018C000170269CF4816590608F42C017D01D3018F
:1018D0009ACFCB010E94990A7C01009749F0AE0192
:1018E000B8010E94830CC8010E94350B870153CFB9
:1018F00010E000E050CF9111089581548A5108F40E
:10190000805E855A0895FB01DC0102C001900D92B2
:1019100041505040D8F70895FB01DC0101900D9231
:0A1920000020E1F70895F894FFCFCE
:10192A0014011401960066000019028000000000EC
:10193A0000F501150142014202B3015101A5014D11
:10194A006F746F72202B20456E636F64657220522C
:10195A00656164792028554E4F29000D0A004F4EC3
:10196A00004F464600420073706565643A002C00D9
:10197A0072706D3A006E616E00696E66006F76660F
:02198A0000005B
:00000001FF
