:100000000C945D000C9485000C9485000C94850084
:100010000C9485000C9485000C9485000C9485004C
:100020000C9485000C9485000C9485000C9485003C
:100030000C9485000C9485000C9485000C9485002C
:100040000C94CC020C9485000C943C030C94160385
:100050000C9485000C9485000C9485000C9485000C
:100060000C9485000C94850000000008000201003B
:100070000003040700000000000000000000000072
:10008000250028002B0000000000240027002A0083
:10009000040404040404040402020202020203032E
:1000A0000303030301020408102040800102040836
:1000B0001020010204081020B90511241FBECFEF43
:1000C000D8E0DEBFCDBF21E0A4E5B1E001C01D92C4
:1000D000AE3FB207E1F711E0A0E0B1E0E2E0F1E10C
:1000E00002C005900D92A435B107D9F710E0CDE517
:1000F000D0E004C02197FE010E948706CC35D107CD
:10010000C9F70E946E030C947F080C94000090E0E5
:10011000FC01EC55FF4F249180579F4FFC018491C7
:10012000882399F090E0880F991FFC01EA57FF4F50
:10013000A591B491FC01E458FF4F859194918FB73C
:10014000F894EC91E22BEC938FBF089590E0FC01C2
:10015000E859FF4F2491FC01EC55FF4F3491FC010D
:10016000E057FF4FE491EE23C9F0222339F023300A
:1001700001F1A8F4213019F1223029F1F0E0EE0F5D
:10018000FF1FE458FF4FA591B4918FB7F894EC91FD
:10019000611126C030953E233C938FBF08952730D0
:1001A000A9F02830C9F0243049F7809180008F7D74
:1001B00003C0809180008F7780938000DFCF84B56B
:1001C0008F7784BDDBCF84B58F7DFBCF8091B0006E
:1001D0008F778093B000D2CF8091B0008F7DF9CF20
:1001E0003E2BDACF3FB7F89480915501909156019C
:1001F000A0915701B091580126B5A89B05C02F3F8B
:1002000019F00196A11DB11D3FBFBA2FA92F982F3C
:100210008827BC01CD01620F711D811D911D42E037
:10022000660F771F881F991F4A95D1F708958F92FF
:100230009F92AF92BF92CF92DF92EF92FF926B01AB
:100240007C010E94F2004B015C01C114D104E10465
:10025000F104B9F00E94F200681979098A099B0932
:10026000683E73408105910580F321E0C21AD108F0
:10027000E108F10888EE880E83E0981EA11CB11CED
:10028000E4CFFF90EF90DF90CF90BF90AF909F9022
:100290008F900895AF92BF92CF92DF92EF92FF922C
:1002A0000F931F93CF93DF936C017B018B01040F9E
:1002B000151FEB015E01AE18BF08C017D10759F03A
:1002C0006991D601ED91FC910190F081E02DC6017C
:1002D0000995892B79F7C501DF91CF911F910F9176
:1002E000FF90EF90DF90CF90BF90AF900895FC010A
:1002F000538D448D252F30E0842F90E0821B930B8B
:10030000541710F0CF96089501970895FC01918D30
:10031000828D981761F0A28DAE0FBF2FB11D5D9633
:100320008C91928D9F5F9F73928F90E008958FEFD5
:100330009FEF08952FB7F8948091590190915A0139
:10034000A0915B01B0915C012FBF809365019093F8
:100350006601A0936701B09368018DE591E00E946A
:10036000860197FF26C02FB7F8948091590190918C
:100370005A01A0915B01B0915C012FBF40916501D2
:10038000509166016091670170916801841B950B23
:10039000A60BB70B4091610150916201609163011E
:1003A0007091640184179507A607B707B0F28FEF25
:1003B0009FEF0895FC01918D828D981731F0828D09
:1003C000E80FF11D858D90E008958FEF9FEF089560
:1003D000FC01918D228D892F90E0805C9F4F821BC4
:1003E00091098F73992708958DE591E00E94E801A6
:1003F00021E0892B09F420E0822F089580E090E02D
:10040000892B29F00E94F40181110C9400000895B9
:10041000FC01A48DA80FB92FB11DA35ABF4F2C9179
:10042000848D90E001968F739927848FA689B78970
:100430002C93A089B1898C91837080648C93938D67
:10044000848D981306C00288F389E02D80818F7D0A
:1004500080830895EF92FF920F931F93CF93DF93C2
:10046000EC0181E0888F9B8D8C8D98131AC0E889F0
:10047000F989808185FF15C09FB7F894EE89FF89BF
:100480006083E889F98980818370806480839FBF5D
:1004900081E090E0DF91CF911F910F91FF90EF905D
:1004A0000895F62E0B8D10E00F5F1F4F0F7311276D
:1004B000E02E8C8D8E110CC00FB607FCFACFE889A8
:1004C000F989808185FFF5CFCE010E940802F1CF26
:1004D000EB8DEC0FFD2FF11DE35AFF4FF0829FB71C
:1004E000F8940B8FEA89FB8980818062CFCFCF930C
:1004F000DF93EC01888D8823B9F0AA89BB89E8894C
:10050000F9898C9185FD03C0808186FD0DC00FB6F1
:1005100007FCF7CF8C9185FFF2CF808185FFEDCF6F
:10052000CE010E940802E9CFDF91CF910895FC012E
:1005300001900020E9F73197AF01481B590BBC012E
:100540008DE591E00C944A010F931F93CF93DF93B5
:10055000EC0188819981009759F02A813B81261707
:10056000370730F081E0DF91CF911F910F9108950F
:100570008B016F5F7F4F0E94B207009759F09983FC
:1005800088831B830A832C813D81232B59F7FC012F
:100590001082E8CF80E0E7CF1F920F920FB60F9244
:1005A00011242F933F938F939F93AF93BF93809189
:1005B000590190915A01A0915B01B0915C01309179
:1005C000540123E0230F2D3758F50196A11DB11DCD
:1005D000209354018093590190935A01A0935B0199
:1005E000B0935C018091550190915601A091570103
:1005F000B09158010196A11DB11D809355019093B2
:100600005601A0935701B0935801BF91AF919F91AC
:100610008F913F912F910F900FBE0F901F901895C3
:1006200026E8230F0296A11DB11DD2CF1F920F9273
:100630000FB60F9211242F933F934F935F936F93B5
:100640007F938F939F93AF93BF93EF93FF938DE52A
:1006500091E00E940802FF91EF91BF91AF919F91AD
:100660008F917F916F915F914F913F912F910F905B
:100670000FBE0F901F9018951F920F920FB60F92FA
:1006800011242F938F939F93EF93FF93E0916D012C
:10069000F0916E018081E0917301F091740182FD0F
:1006A0001BC09081809176018F5F8F7320917701BD
:1006B000821741F0E0917601F0E0E35AFE4F958F0A
:1006C00080937601FF91EF919F918F912F910F90E1
:1006D0000FBE0F901F9018958081F4CFCF93DF93BA
:1006E000CDB7DEB7A3970FB6F894DEBF0FBECDBF70
:1006F000789484B5826084BD84B5816084BD85B5FD
:10070000826085BD85B5816085BD80916E00816008
:1007100080936E00109281008091810082608093AE
:1007200081008091810081608093810080918000B0
:100730008160809380008091B10084608093B100DB
:100740008091B00081608093B00080917A008460D5
:1007500080937A0080917A00826080937A00809101
:100760007A00816080937A0080917A00806880931B
:100770007A001092C10082E00E94870084E00E940B
:10078000870083E00E94870085E00E948700E09157
:100790006D01F0916E0182E08083E0916901F0913A
:1007A0006A011082E0916B01F0916C0180E180831D
:1007B00010927501E0917101F091720186E08083E1
:1007C000E0916F01F0917001808180618083E09100
:1007D0006F01F0917001808188608083E0916F01EA
:1007E000F0917001808180688083E0916F01F091C9
:1007F000700180818F7D80838AE191E00E94970261
:1008000085E491E00E9497028AE0482E512C612CE9
:10081000712C90E0892E90E0992E8DE591E00E9458
:10082000E801181619060CF066C01A8219821C829B
:100830001B821E821D8270E060E0CE0101960E9444
:10084000A40229813A8181112EC02115310519F0A8
:10085000C9010E9429071A8219821E821D821C82E8
:100860001B820E949A0197FD26C08A30910519F1DA
:100870008AA31BA20D811E810F5F1F4FB801CE01FD
:1008800001960E94A402882361F329813A818D8117
:100890009E81BE016E5D7F4F820F931F0E9478087C
:1008A0001E830D83DECF1E821D8267E471E0C901C5
:1008B0000E947808D6CFC980DA80C114D10439F0FB
:1008C0000D811E8176010115110509F006C109810E
:1008D0001A810115110579F0C8010E94E605161666
:1008E00017061806190624F470930101609300019D
:1008F000C8010E94290788E491E00E949702C090F5
:100900000001D09001010D2C000CEE08FF08F7FE4D
:100910001AC16DE28DE591E00E942A022227332759
:10092000A9012C193D094E095F0919A28E010F5D1D
:100930001F4FCA01B901A30192010E946506605DC3
:10094000F80162938F01211531054105510589F7A1
:100950000115110519F0C8010E94970285E491E084
:100960000E94970261E082E00E94A60060E084E0BD
:100970000E94A60060E083E00E94A60060E085E09F
:100980000E94A600C0900001D09001010D2C000C27
:10099000EE08FF08C701B6010E94170161E082E07E
:1009A0000E94A60061E084E00E94A60060E083E06F
:1009B0000E94A60060E085E00E94A600C701B60183
:1009C0000E94170160E082E00E94A60061E084E0DE
:1009D0000E94A60060E083E00E94A60060E085E03F
:1009E0000E94A600C701B6010E94170160E082E0E4
:1009F0000E94A60061E084E00E94A60061E083E01E
:100A00000E94A60060E085E00E94A600C701B60132
:100A10000E94170160E082E00E94A60060E084E08E
:100A20000E94A60061E083E00E94A60060E085E0ED
:100A30000E94A600C701B6010E94170160E082E093
:100A40000E94A60060E084E00E94A60061E083E0CE
:100A50000E94A60061E085E00E94A600C701B601E1
:100A60000E94170160E082E00E94A60060E084E03E
:100A70000E94A60060E083E00E94A60061E085E09D
:100A80000E94A600C701B6010E94170161E082E042
:100A90000E94A60060E084E00E94A60060E083E07F
:100AA0000E94A60061E085E00E94A600C701B60191
:100AB0000E94170165E070E080E090E00E9417015D
:100AC0008114910409F4A9CE0E94F401882309F449
:100AD000A4CE0E940000A1CE750157018FEFA81A85
:100AE000B80AF7018081082E000C990B0E9422069B
:100AF000892B91F7015011090C0D1D1DF801808102
:100B0000082E000C990B0E942206892B31F00E153D
:100B10001F0518F001501109F1CFA8014F5F5F4F79
:100B20004E195F095E834D83CE14DF0420F4B701B4
:100B3000C6010E946F08E981FA818D819E81E80FCC
:100B4000F91F1082C4CEA701960119A28E010F5D74
:100B50001F4FCA01B901A30192010E946506605DA1
:100B6000F80162938F01211531054105510589F77F
:100B7000EFCEEDE5F1E01382128288EE93E0A0E083
:100B8000B0E084839583A683B7838CE091E0918362
:100B9000808385EC90E09587848784EC90E097874C
:100BA000868780EC90E0918B808B81EC90E0938B3A
:100BB000828B82EC90E0958B848B86EC90E0978B17
:100BC000868B118E128E138E148E08951F93FC0146
:100BD00099278827BC01E89411911032E9F3193064
:100BE00010F01E30C8F31B3251F01D3249F46894E6
:100BF00006C00E940D06610F711D811D911D11918E
:100C000010531A30B0F33EF490958095709561952D
:100C10007F4F8F4F9F4F1F910895592F482F372F88
:100C2000262F660F771F881F991F660F771F881F53
:100C3000991F620F731F841F951F660F771F881FF0
:100C4000991F089591110C942B06803219F0895048
:100C50008550C8F708959927882708952F923F92C5
:100C60004F925F926F927F928F929F92AF92BF92BC
:100C7000CF92DF92EF92FF920F931F93CF93DF9368
:100C8000CDB7DEB7CA1BDB0B0FB6F894DEBF0FBEC5
:100C9000CDBF09942A88398848885F846E847D8412
:100CA0008C849B84AA84B984C884DF80EE80FD8014
:100CB0000C811B81AA81B981CE0FD11D0FB6F8948A
:100CC000DEBF0FBECDBFED010895A1E21A2EAA1B13
:100CD000BB1BFD010DC0AA1FBB1FEE1FFF1FA217EC
:100CE000B307E407F50720F0A21BB30BE40BF50BE9
:100CF000661F771F881F991F1A9469F76095709572
:100D0000809590959B01AC01BD01CF010895EE0F38
:100D1000FF1F0590F491E02D09940F931F93CF933B
:100D2000DF938230910510F482E090E0E091FC01C5
:100D3000F091FD0130E020E0B0E0A0E0309799F4C0
:100D40002115310509F44AC0281B390B243031051F
:100D5000D8F58A819B816115710589F1FB01938327
:100D60008283FE0111C040815181028113814817A5
:100D70005907E0F04817590799F4109761F0129657
:100D80000C93129713961C933296CF01DF91CF915B
:100D90001F910F9108950093FC011093FD01F4CF72
:100DA0002115310551F04217530738F0A901DB0135
:100DB0009A01BD01DF01F801C1CFEF01F9CF909396
:100DC000FD018093FC01CDCFFE01E20FF31F819363
:100DD00091932250310939832883D7CF2091FA018A
:100DE0003091FB01232B41F4209104013091050146
:100DF0003093FB012093FA0120910201309103010D
:100E00002115310541F42DB73EB7409106015091AF
:100E10000701241B350BE091FA01F091FB01E21769
:100E2000F307A0F42E1B3F0B2817390778F0AC010D
:100E30004E5F5F4F2417350748F04E0F5F1F5093EA
:100E4000FB014093FA01819391939FCFF0E0E0E0A2
:100E50009CCFCF93DF930097E9F0FC013297138288
:100E60001282A091FC01B091FD01ED0130E020E083
:100E70001097A1F420813181820F931F2091FA01F4
:100E80003091FB012817390709F061C0F093FB018D
:100E9000E093FA01DF91CF910895EA01CE17DF07C1
:100EA000E8F54A815B819E0141155105B1F7E901E1
:100EB000FB83EA8349915991C40FD51FEC17FD07B5
:100EC00061F4808191810296840F951FE9019983D5
:100ED0008883828193819B838A83F0E0E0E012968D
:100EE0008D919C9113970097B9F52D913C91119795
:100EF000CD010296820F931F2091FA013091FB01E0
:100F00002817390739F6309751F51092FD011092E4
:100F1000FC01B093FB01A093FA01BCCFD383C28341
:100F200040815181840F951FC817D90761F44E5F26
:100F30005F4F88819981480F591F518340838A816F
:100F40009B81938382832115310509F0B0CFF09303
:100F5000FD01E093FC019ECFFD01DC01C0CF1382B7
:100F60001282D7CFB0E0A0E0E8EBF7E00C943006B7
:100F70008C01009751F4CB010E948D068C01C801B1
:100F8000CDB7DEB7E0E10C944C06FC01E60FF71F8D
:100F90009C0122503109E217F30708F49DC0D901E2
:100FA000CD91DC911197C617D70798F0C530D105C0
:100FB00030F3CE0104978617970708F3C61BD70BAB
:100FC0002297C193D1936D937C93CF010E942907FF
:100FD000D6CF5B01AC1ABD0A4C018C0E9D1EA091B0
:100FE000FC01B091FD01512C412CF12CE12C10970A
:100FF00031F58091FA019091FB018815990509F06E
:101000005CC04616570608F058C0809102019091C6
:101010000301009741F48DB79EB7409106015091AE
:101020000701841B950BE817F90708F055C0F093EA
:10103000FB01E093FA01F90171836083A0CF8D91E8
:101040009C91119712966C90129713967C9013971F
:10105000A815B90559F56C0142E0C40ED11CCA149B
:10106000DB0420F1AC014A195B09DA0112961597ED
:1010700080F06282738251834083D9016D937C93A7
:10108000E114F10471F0D7011396FC93EE931297DB
:1010900076CF22968C0F9D1FF90191838083F301F7
:1010A000EFCFF093FD01E093FC0169CF481659069C
:1010B00008F42C017D01D3019ACFCB010E948D064B
:1010C0007C01009749F0AE01B8010E946F08C80189
:1010D0000E942907870153CF10E000E050CFFB01A9
:1010E000DC0102C001900D9241505040D8F70895A4
:1010F000FB01DC0101900D920020E1F70895F894C6
:02110000FFCF1F
:101102000A000000FE018000000000002A024A01DD
:1011120077017702E8018601DA01456E7465722073
:10112200737465702064656C617920696E206D73DB
:101132002028706F73697469766520696E746567BB
:101142006572293A000D0A00737465705F64656CFC
:0411520061793A0085
:00000001FF
